:020000001628C0
:0E0006008312031325088A00240882000800D4
:1000140003208A110A128000840AA40A0319A50A7B
:08002400F003031D0A28080087
:10002C0083120313A0010330A1000230A20003309D
:10003C00A300073083169F00880185018701553086
:10004C008600831285158512051605100511851479
:10005C002008F000F00D7010F00D7010F00D701005
:10006C00F00D70102108700787002208F000F00DC9
:10007C007010F00D7010F00D7010F00D7010230852
:10008C00700788000830FB001B30FC002730FD0097
:10009C00FD0B4E28FC0B4E28FB0B4E280708003A94
:1000AC00031D5D28051D5D28861C5D286728080832
:1000BC00003A031D6628851A6628861C6628672860
:1000CC002F29861C2F29061C2E29851ACD28203075
:1000DC0085061030850604308506851C782802308C
:1000EC0085067A28013085060330A300A20103306F
:1000FC0088000B30FB002630FC005D30FD00FD0B52
:10010C008528FC0B8528FB0B8528000000000808BF
:10011C00003A0319AE28A3032208F000F00D70106A
:10012C00F00D7010F00D7010F00D701023087007AA
:10013C0088000B30FB002630FC005D30FD00FD0B11
:10014C00A528FC0BA528FB0BA528000000008D287A
:10015C0010308506083085060230A3000130A2005D
:10016C00123088000230A1000130A000123087004C
:10017C000B30FB002630FC005D30FD00FD0BC4286D
:10018C00FC0BC428FB0BC428000000006928051DCB
:10019C002E29043085060230850620308506051A86
:1001AC00DA2810308506DC28083085060330A100DB
:1001BC00A001033087000B30FB002630FC005D30C3
:1001CC00FD00FD0BE728FC0BE728FB0BE7280000E4
:1001DC0000000708003A03191029A1032008F000B9
:1001EC00F00D7010F00D7010F00D7010F00D70100F
:1001FC002108700787000B30FB002630FC005D30B7
:10020C00FD00FD0B0729FC0B0729FB0B0729000040
:10021C000000EF280230850601308506A10102306E
:10022C00A000203087000930A3000130A200193053
:10023C0088000B30FB002630FC005D30FD00FD0B10
:10024C002529FC0B2529FB0B25290000000069281A
:10025C0067282108003A031D3A290A30A10020081A
:10026C00003A03193A29A0032308003A031D452933
:10027C000A30A3002208003A03194529A203A1035E
:10028C00A3030808003A031D5629851A5629203065
:10029C008506103085060330A300A20103308800C8
:1002AC000808003A031D6629851966292030850641
:1002BC00083085060330A3000230A20023308800EA
:1002CC000808003A031D7629051A76290830850698
:1002DC00103085060130A2000230A30012308800D5
:1002EC000708003A031D8629051C8629043085065B
:1002FC00013085060130A0000530A10015308700C3
:10030C000708003A031D9529851C9529013085069F
:10031C00023085060230A000A101203087000708BA
:10032C00003A031DA429051DA429043085060230BA
:10033C008506A0010330A100033087002E28A529D3
:02400E004A2F37
:00000001FF
